:100000000C9437000C945F000C945F000C945F001C
:100010000C945F000C945F000C945F000C945F00E4
:100020000C945F000C945F000C94A5010C945F0588
:100030000C9469050C945F000C945F000C945F00B5
:100040000C9473050C945F000C94A6070C94D807CD
:100050000C945F000C945F000C945F000C945F00A4
:100060000C945F000C945F00ED010808F10111246D
:100070001FBECFEFD8E0DEBFCDBF11E0A0E0B1E002
:10008000E0E4FAE102C005900D92A63EB107D9F76F
:1000900023E0A6EEB1E001C01D92A530B207E1F762
:1000A00010E0CCE6D0E004C02297FE010E94880A4E
:1000B000C836D107C9F70E944C080C94130D0C9454
:1000C00000000F931F9340ED57E060E070E084E282
:1000D00092E00E94200220E032EC41E050E064E631
:1000E00072E084E292E00E94330284E292E00E9495
:1000F0001D026AE071E080915502909156020E94C3
:10010000A7086AE070E080E090E00E94EC0541E022
:1001100060E084E292E00E949E028EEE91E00E94F6
:10012000D40260E08EEE91E00E94F40261E08EEE77
:1001300091E00E94F402109200021092FF011092CE
:100140001B0210921A0240E157E260E070E0409317
:10015000EE015093EF016093F0017093F10180E2A2
:100160009FEBA2E0B0E08093F2019093F301A093A3
:10017000F401B093F5010EEE12E020E030E00093C0
:10018000F6011093F7012093F8013093F9014093A1
:10019000090250930A0260930B0270930C02809341
:1001A0000D0290930E02A0930F02B093100288EEFE
:1001B00093E0A0E0B0E08093110290931202A0932C
:1001C0001302B09314021092FE011092FD0181E01F
:1001D00090E090931902809318028093FB01809322
:1001E00016021F910F9108950F931F93CF93DF93E2
:1001F000CDB7DEB72C970FB6F894DEBF0FBECDBFDC
:100200000E94BD056093E6017093E7018093E801C9
:100210009093E9010091EA011091EB012091EC012A
:100220003091ED01AB01BC01401B510B620B730B14
:100230008091060190910701A0910801B0910901F8
:10024000481759076A077B0708F474C08091FB01BF
:10025000882319F01092FB0103C081E08093FB0119
:1002600080911602882319F01092160203C081E0D3
:100270008093160284E692E00E94A9086091FB0137
:1002800070E04AE0CE0107960E94BE096CE171E081
:10029000CE0101960E949009BE01695F7F4FCE0199
:1002A00001960E94160ABC0184E692E00E94AD0805
:1002B000CE0101960E942209CE0107960E942209D2
:1002C00084E692E00E94A9086091160270E04AE07C
:1002D000CE0107960E94BE0965E371E0CE0101964A
:1002E0000E949009BE01695F7F4FCE0101960E9476
:1002F000160ABC0184E692E00E94AD08CE01019688
:100300000E942209CE0107960E94220984E692E00B
:100310000E94A9088091E6019091E701A091E8016F
:10032000B091E9018093EA019093EB01A093EC0175
:10033000B093ED012C960FB6F894DEBF0FBECDBF83
:10034000DF91CF911F910F9108951F920F920FB6D9
:100350000F9211242F933F934F935F936F937F934B
:100360008F939F93AF93BF93EF93FF938091FC0183
:10037000882379F060E08EEE91E00E94480580913C
:1003800005029091060288519C4F909389008093BA
:10039000880080911702882379F061E08EEE91E069
:1003A0000E944805809120029091210288519C4F23
:1003B00090938B0080938A00FF91EF91BF91AF9152
:1003C0009F918F917F916F915F914F913F912F916D
:1003D0000F900FBE0F901F9018958EEE91E00C9429
:1003E000B9028EEE91E00C94D3020F931F93CF933A
:1003F000DF93EC01662359F00E94BD0569837A837F
:100400008B839C83DF91CF911F910F9108950E9460
:10041000BD0509811A812B813C81601B710B820B08
:10042000930B613271058105910530F763E070E04F
:1004300080E090E00E94EC05EACF60E00C94F501CA
:10044000FC0113AA14AA15AA16AA118212821382F9
:100450001482411551056105710521F0CB01BA01E6
:100460000C94EC050895FB01BA01A901DC01D296B8
:10047000FC93EE93D19726E0CF010C9444071F9391
:10048000CF93DF93EC01162F6EE471E089A99AA94E
:100490000E94A7084AE050E0612F89A99AA90E940A
:1004A0001B0965E571E089A99AA90E94A70862E382
:1004B00070E080E090E0DF91CF911F910C94EC050B
:1004C0001F93CF93DF93EC01162F8D81882389F141
:1004D00089A99AA9DC01ED91FC910480F581E02DB8
:1004E0000995892BA9F307C02637310519F128355D
:1004F000310509F41D8289A99AA9DC01ED91FC91CD
:100500000480F581E02D09951816190694F489A93F
:100510009AA9DC01ED91FC910680F781E02D099507
:100520009C01332723363105F9F6612FCE010E9455
:100530003F0283E6DF91CF911F9108950F931F93A0
:10054000CF93DF931F92CDB7DEB78C01662349F0BE
:1005500081E0F801858360E0C80149830E94600260
:100560004981F80145830F90DF91CF911F910F9141
:100570000895FC0110821182128213821482158266
:10058000168217821086118612861386138E148E99
:10059000158E168E178E10A211A212A213A214A2EB
:1005A00015A216A20895089582EA809380008AE138
:1005B00080938100109282008FE39CE990938700E2
:1005C00080938600109285001092840088EE93E05C
:1005D000909389008093880090938B0080938A0089
:1005E00086E280936F000895623068F4611105C05F
:1005F000219A21E0FC01268704C0229A21E0FC0117
:1006000021A781E0089580E00895CF93DF9300D083
:10061000CDB7DEB72BE1629F800D911D1124FC0147
:100620004085518562857385DB01CA012CE0B59553
:10063000A795979587952A95D1F7E82FF0E0DF01E8
:10064000AA0FBB1FAA55BE4F8D919C91EE0FFF1FA5
:10065000E855FE4F20813181281B390B3A832983CD
:1006600029813A81B4E035952795BA95E1F73A8327
:10067000298329813A8144275F7066277727452F90
:10068000562F672F772767FD7A95249FF001259FC6
:10069000F00D349FF00D1124FA83E98329813A810A
:1006A000820F931F0F900F90DF91CF9108950F93BA
:1006B0001F93CF93A62FB0E0FC012BE1629FE00DCA
:1006C000F11D1124C485662757FD6095762F038997
:1006D000148925893689CC2349F0400F511F621FA8
:1006E000731F438B548B658B768B08C0041B150BD3
:1006F000260B370B038B148B258B368B2BE12A9F14
:10070000F0012B9FF00D1124E80FF91F83899489C4
:10071000A589B689009721E0A207B1054CF08FEFBB
:100720009FEFA0E0B0E0838B948BA58BB68B06C0C7
:10073000B7FF06C0138A148A158A168A81E001C0A1
:1007400080E0CF911F910F9108954F925F926F9229
:100750007F928F929F92AF92BF92CF92DF92EF9251
:10076000FF92CF93DF93EC012BE1629FC00DD11D6F
:100770001124488059806A807B802C813D814E8184
:100780005F812419350946095709A8EEB3E00E9494
:100790007B0A88248A94982CA12CB12CA501940161
:1007A0000E945C0A6B897C898D899E890E942A0A35
:1007B000A50194010E945C0A69017A01A8EEB3E0E8
:1007C000A30192010E947B0AA50194010E945C0A88
:1007D000C20ED31EE41EF51EC601DF91CF91FF901D
:1007E000EF90DF90CF90BF90AF909F908F907F90D1
:1007F0006F905F904F900895DF92EF92FF920F936A
:100800001F93CF93DF938C01D62E0E940503AC017A
:10081000ED2CF12CE8018BE1D89EC00DD11D1124E7
:1008200029893A8922303105F1F03CF4211531054E
:1008300059F02130310589F02CC023303105C9F041
:100840002430310509F125C08D85882311F181E01F
:1008500090E09A8B898B8C871CC06D2DC8010E94FB
:1008600057038823B1F083E090E09A8B898B1C8634
:1008700010C06D2DC8010E945703882351F084E0F9
:1008800090E09A8B898B05C08D85811102C01A8AF0
:10089000198A6D2DC8010E94A5032BE12E9DF00140
:1008A0002F9DF00D1124E00FF11FAA2797FDA095B1
:1008B000BA2F878B908FA18FB28FDF91CF911F912D
:1008C0000F91FF90EF90DF900895DF92EF92FF92EB
:1008D0000F931F93CF93DF938C01D62E0E940503B5
:1008E000AC01ED2CF12CE8018BE1D89EC00DD11D9F
:1008F000112429893A892130310561F024F4232B10
:1009000049F58D8520C02230310569F0233031054D
:1009100079F020C08D85882371F06D2DC8010E946B
:1009200057038823B9F083E090E09A8B898B05C048
:100930008D85811104C01A8A198A1C860BC06D2D01
:10094000C8010E945703882329F081E090E09A8B28
:10095000898B8C876D2DC8010E94A5032BE12E9DEC
:10096000F0012F9DF00D1124E00FF11FAA2797FD34
:10097000A095BA2F878B908FA18FB28FDF91CF91E7
:100980001F910F91FF90EF90DF900895FF920F93CA
:100990001F93CF93DF93EC01F62E0E940503AC0169
:1009A0000F2D10E0FE018BE1F89EE00DF11D1124EA
:1009B0002189328921303105A9F01CF4232B41F023
:1009C0004DC02230310549F12330310579F146C05F
:1009D0008585882309F442C081E090E0928B818B69
:1009E00084873CC08585811105C083E090E0928BAF
:1009F000818B14866F2DCE010E945703882371F1DD
:100A00008BE1809FF001819FF00D1124EC0FFD1F01
:100A100082E090E0928B818B21C0858581111EC080
:100A200083E090E0928B818B148618C085858823A3
:100A300029F081E090E0928B818B84876F2DCE012D
:100A40000E945703882351F08BE1809FF001819F22
:100A5000F00D1124EC0FFD1F128A118A6F2DCE01AB
:100A60000E94A5032BE1209FF001219FF00D11248E
:100A7000EC0FFD1FAA2797FDA095BA2F878B908FAB
:100A8000A18FB28FDF91CF911F910F91FF900895A9
:100A9000FC012BE1629FE00DF11D112427853089B7
:100AA0002130310539F02230310531F0232B31F47A
:100AB0000C9465040C94C6040C94FC0308951F92D6
:100AC0000F920FB60F9211240F900FBE0F901F9030
:100AD00018951F920F920FB60F9211240F900FBE10
:100AE0000F901F9018951F920F920FB60F9211241E
:100AF0002F933F938F939F93AF93BF9380915C020B
:100B000090915D02A0915E02B0915F0230915B0214
:100B100023E0230F2D3720F40196A11DB11D05C040
:100B200026E8230F0296A11DB11D20935B0280933E
:100B30005C0290935D02A0935E02B0935F0280918D
:100B4000600290916102A0916202B09163020196ED
:100B5000A11DB11D8093600290936102A093620277
:100B6000B0936302BF91AF919F918F913F912F916D
:100B70000F900FBE0F901F9018952FB7F8946091AB
:100B80005C0270915D0280915E0290915F022FBFC6
:100B900008953FB7F8948091600290916102A0910E
:100BA0006202B091630226B5A89B05C02F3F19F0E1
:100BB0000196A11DB11D3FBF6627782F892F9A2F5F
:100BC000620F711D811D911D42E0660F771F881F06
:100BD000991F4A95D1F708958F929F92AF92BF9235
:100BE000CF92DF92EF92FF926B017C010E94C905C8
:100BF0004B015C01C114D104E104F104F1F00E9445
:100C0000290A0E94C905681979098A099B09683E61
:100C100073408105910570F321E0C21AD108E10803
:100C2000F10888EE880E83E0981EA11CB11CC11447
:100C3000D104E104F10429F7DDCFFF90EF90DF90BC
:100C4000CF90BF90AF909F908F900895789484B587
:100C5000826084BD84B5816084BD85B5826085BDB8
:100C600085B5816085BDEEE6F0E08081816080839E
:100C7000E1E8F0E010828081826080838081816081
:100C80008083E0E8F0E0808181608083E1EBF0E048
:100C9000808184608083E0EBF0E0808181608083EC
:100CA000EAE7F0E0808184608083808182608083D5
:100CB0008081816080838081806880831092C10000
:100CC0000895FC01818D228D90E0805C9F4F821BF6
:100CD00091098F7399270895FC01918D828D981742
:100CE00031F0828DE80FF11D858D90E008958FEF32
:100CF0009FEF0895FC01918D828D981761F0828D90
:100D0000DF01A80FB11D5D968C91928D9F5F9F733F
:100D1000928F90E008958FEF9FEF08958EEF97E008
:100D2000892B49F080E090E0892B29F00E94FE0792
:100D300081110C9400000895FC01848DDF01A80F3F
:100D4000B11DA35ABF4F2C91848D90E001968F73F3
:100D50009927848FA689B7892C93A089B1898C9112
:100D600080648C93938D848D981306C00288F389D8
:100D7000E02D80818F7D80830895CF93DF93EC01F8
:100D8000888D8823C9F0EA89FB89808185FD05C0AB
:100D9000A889B9898C9186FD0FC00FB607FCF5CFE5
:100DA000808185FFF2CFA889B9898C9185FFEDCF2D
:100DB000CE010E949C06E7CFDF91CF910895CF929C
:100DC000DF92FF920F931F93CF93DF931F92CDB7C4
:100DD000DEB76C0181E0D60158968C9358975B96EC
:100DE0009C915B975C968C915C97981307C050968A
:100DF000ED91FC915197808185FD2EC0F601038D08
:100E000010E00F5F1F4F0F731127F02EF601848D36
:100E1000F81211C00FB607FCF9CFD6015096ED912C
:100E2000FC915197808185FFF1CFC60169830E94B3
:100E30009C066981EBCF838DE80FF11DE35AFF4FCC
:100E40006083D6015B960C935B975296ED91FC9173
:100E50005397808180620CC0D6015696ED91FC912B
:100E6000579760835096ED91FC91519780818064F3
:100E7000808381E090E00F90DF91CF911F910F91DF
:100E8000FF90DF90CF900895BF92CF92DF92EF92C4
:100E9000FF92CF93DF93EC016A017B01B22EE889C8
:100EA000F98982E08083411581EE5807610571055B
:100EB000A1F060E079E08DE390E0A70196010E9447
:100EC0003A0A2150310941095109569547953795FC
:100ED0002795211580E1380798F0E889F989108273
:100EE00060E874E88EE190E0A70196010E943A0A5A
:100EF0002150310941095109569547953795279554
:100F0000EC85FD853083EE85FF852083188EEC8986
:100F1000FD89B082EA89FB89808180618083EA89CA
:100F2000FB89808188608083EA89FB898081806871
:100F30008083EA89FB8980818F7D8083DF91CF91D7
:100F4000FF90EF90DF90CF90BF9008951F920F9287
:100F50000FB60F9211242F938F939F93EF93FF93CC
:100F6000E0917402F09175028081E0917A02F09133
:100F70007B0282FD12C0908180917D028F5F8F7312
:100F800020917E02821751F0E0917D02F0E0EC5951
:100F9000FD4F958F80937D0201C08081FF91EF917D
:100FA0009F918F912F910F900FBE0F901F901895CA
:100FB0001F920F920FB60F9211242F933F934F93CE
:100FC0005F936F937F938F939F93AF93BF93EF93B1
:100FD000FF9384E692E00E949C06FF91EF91BF91FF
:100FE000AF919F918F917F916F915F914F913F91C1
:100FF0002F910F900FBE0F901F90189584E692E0EE
:101000000E94610621E0892B09F420E0822F0895D7
:10101000109267021092660288EE93E0A0E0B0E0C2
:101020008093680290936902A0936A02B0936B0266
:101030008CEC91E0909365028093640285EC90E0E3
:10104000909371028093700284EC90E0909373020D
:101050008093720280EC90E090937502809374020A
:1010600081EC90E0909377028093760282EC90E09E
:10107000909379028093780286EC90E090937B02C3
:1010800080937A0210927D0210927E0210927F026B
:1010900010928002089508950E9426060E944B082F
:1010A0000E946100CEE8D6E00E94F4002097E1F3B0
:1010B0000E948E06F9CFCF92DF92EF92FF920F93AC
:1010C0001F93CF93DF937C016A01EB0100E010E0F6
:1010D0000C151D0571F06991D701ED91FC910190FE
:1010E000F081E02DC7010995892B19F00F5F1F4F83
:1010F000EFCFC801DF91CF911F910F91FF90EF903B
:10110000DF90CF9008956115710581F0DB010D909E
:101110000020E9F7AD0141505109461B570BDC0196
:10112000ED91FC910280F381E02D099480E090E044
:101130000895DC01ED91FC91DB0114964D915C91D9
:1011400015976D917C910280F381E02D09940C94A8
:1011500083086BE571E00C9483080F931F93CF9382
:10116000DF93EC010E9499088C01CE010E94A9082E
:10117000800F911FDF91CF911F910F9108958F9252
:101180009F92AF92BF92DF92EF92FF920F931F93C5
:10119000CF93DF93CDB7DEB7A1970FB6F894DEBF3C
:1011A0000FBECDBF7C01F42FD52ECB0119A222306A
:1011B00008F42AE08E010F5D1F4F822E912CA12C86
:1011C000B12C6F2F7D2DA50194010E943A0AF22FB8
:1011D000D32ECA01015011096A3014F4E0E301C0B2
:1011E000E7E3E60FD801EC93232B242B252B49F7BB
:1011F000B801C7010E948308A1960FB6F894DEBF1C
:101200000FBECDBFDF91CF911F910F91FF90EF9057
:10121000DF90BF90AF909F908F900895211531057A
:1012200041F4DC01ED91FC910190F081E02D642FFF
:1012300009940C94BF089A01462F50E060E070E0DA
:101240000C940E09FC01808191810C94330BCF9397
:10125000DF93EC0188819981009711F00E94330B94
:10126000198218821D821C821B821A82DF91CF9103
:1012700008950F931F93CF93DF93EC018B016F5F62
:101280007F4F888199810E94C20B009731F099832A
:1012900088831B830A8381E001C080E0DF91CF91C6
:1012A0001F910F910895CF93DF93EC01888199816D
:1012B000892B29F08A819B818617970760F4CE01DC
:1012C0000E943909882341F08C819D81892B19F472
:1012D000E881F981108281E0DF91CF910895EF924A
:1012E000FF920F931F93CF93DF93EC017B018A0151
:1012F000BA010E945309811104C0CE010E9427093E
:1013000007C01D830C83B701888199810E94950CC9
:10131000CE01DF91CF911F910F91FF90EF90089533
:10132000FC011182108213821282158214826115CF
:10133000710559F0FB0101900020E9F7AF01415020
:101340005109461B570B0C946F090895CF93DF93F7
:10135000EC016115710561F0FB0101900020E9F7D6
:10136000AF0141505109461B570B0E946F0902C043
:101370000E942709CE01DF91CF9108950F931F930B
:10138000CF93DF93CDB7DEB762970FB6F894DEBF89
:101390000FBECDBF8C01CB01F801118210821382E8
:1013A00012821582148250E0BE016F5F7F4F0E944F
:1013B0009C0CBE016F5F7F4FC8010E94A609629618
:1013C0000FB6F894DEBF0FBECDBFDF91CF911F9156
:1013D0000F910895EF92FF920F931F93CF93DF9396
:1013E000EC017B010C811D816115710511F480E018
:1013F00016C04115510591F0040F151FB8010E9448
:1014000053098823A1F3288139818C819D81B701FB
:10141000820F931F0E94950C1D830C8381E0DF9146
:10142000CF911F910F91FF90EF900895CF93DF938D
:10143000EC01FB0144815581608171810E94EA09C0
:10144000811103C0CE010E942709CE01DF91CF9107
:1014500008950895DB018F939F930E947B0ABF91AB
:10146000AF91A29F800D911DA39F900DB29F900DF3
:1014700011240895A1E21A2EAA1BBB1BFD010DC069
:10148000AA1FBB1FEE1FFF1FA217B307E407F50734
:1014900020F0A21BB30BE40BF50B661F771F881F10
:1014A000991F1A9469F760957095809590959B01A6
:1014B000AC01BD01CF010895052E97FB1EF40094E9
:1014C0000E94730A57FD07D00E943A0A07FC03D016
:1014D0004EF40C94730A50954095309521953F4FEA
:1014E0004F4F5F4F089590958095709561957F4F10
:1014F0008F4F9F4F08950E948C0AA59F900DB49F17
:10150000900DA49F800D911D11240895EE0FFF1FD3
:101510000590F491E02D0994A29FB001B39FC00102
:10152000A39F700D811D1124911DB29F700D811D0F
:101530001124911D0895CF93DF938230910510F40B
:1015400082E090E0E0910303F091040320E030E0BA
:10155000A0E0B0E0309739F1408151814817590738
:10156000B8F04817590771F482819381109729F0D8
:1015700013969C938E9312972CC0909304038093A0
:10158000030327C02115310531F04217530718F026
:10159000A901DB0101C0EF019A01BD01DF01028059
:1015A000F381E02DD7CF21153105F9F0281B390B38
:1015B0002430310580F48A819B816115710521F009
:1015C000FB019383828304C09093040380930303FD
:1015D000FE01329644C0FE01E20FF31F8193919306
:1015E00022503109398328833AC020910103309178
:1015F0000203232B41F42091020130910301309327
:101600000203209301032091000130910101211573
:10161000310541F42DB73EB74091040150910501C9
:10162000241B350BE0910103F0910203E217F3074D
:10163000A0F42E1B3F0B2817390778F0AC014E5F42
:101640005F4F2417350748F04E0F5F1F509302037A
:10165000409301038193919302C0E0E0F0E0CF0159
:10166000DF91CF910895CF93DF93009709F487C05E
:10167000FC01329713821282C0910303D0910403BC
:10168000209781F420813181280F391F8091010337
:10169000909102038217930779F5F0930203E09388
:1016A00001036DC0DE0120E030E0AE17BF0750F44B
:1016B00012964D915C9113979D014115510509F1C9
:1016C000DA01F3CFB383A28340815181840F951F48
:1016D0008A179B0771F48D919C911197840F951F28
:1016E00002969183808312968D919C911397938398
:1016F00082832115310529F4F0930403E093030359
:101700003EC0D9011396FC93EE9312974D915D91D3
:10171000A40FB51FEA17FB0779F480819181840F2C
:10172000951F0296D90111969C938E938281938185
:1017300013969C938E931297E0E0F0E08A819B8150
:10174000009719F0FE01EC01F9CFCE010296288135
:101750003981820F931F20910103309102032817D2
:10176000390769F4309729F41092040310920303A7
:1017700002C013821282D0930203C0930103DF914F
:10178000CF910895A0E0B0E0E8ECFBE00C94E00C11
:10179000EC01CB01209719F40E949B0AB8C0FE010E
:1017A000E60FF71F9E0122503109E217F30708F4F4
:1017B000ACC0D9010D911C91119706171707B8F00D
:1017C0000530110508F49FC0A8014450510946177F
:1017D000570708F498C002501109061B170B019314
:1017E00011936D937C93CF010E94330B8CC05B01EE
:1017F000A01AB10A4E01800E911EA0910303B09170
:101800000403612C712C60E070E0109709F449C06A
:10181000A815B905C9F5ED90FC901197670142E054
:10182000C40ED11CCA14DB0478F147018A189B0846
:10183000640142E0C40ED11C1296BC90129713961C
:10184000AC91B5E0CB16D10440F0B282A383918273
:101850008082D9018D939C9309C00E5F1F4F0E0D9E
:101860001F1DF90111830083EB2DFA2F61157105FE
:1018700031F0DB011396FC93EE93129744C0F09382
:101880000403E09303033FC06D917C9111976616AA
:10189000770608F43B01BD0112960D90BC91A02D76
:1018A000B4CF609101037091020368157905E9F4E2
:1018B00068167906D0F4409100015091010141155C
:1018C000510541F44DB75EB7609104017091050177
:1018D000461B570BE417F507C0F4F0930203E0939F
:1018E0000103F901918380830EC00E949B0A7C0151
:1018F000009759F0A801BE010E948C0CCE010E94F5
:10190000330BC70104C0CE0102C080E090E0CDB728
:10191000DEB7EEE00C94FC0CFB01DC0102C0019090
:101920000D9241505040D8F70895FB01DC01019021
:101930000D920020E1F708954532510520F4423020
:1019400010F00C94A70CFB011082CB010895BB276B
:101950004A3031F4992322F4BDE2909581959F4F4E
:101960000C94B30CBB27FB015527AA27880F991F9E
:10197000AA1FA41710F0A41B83955051B9F7A05DBE
:10198000AA3308F0A95DA193009779F7B111B1933B
:101990001192CB010C94CC0CDC01FC01672F7191EE
:1019A0007723E1F7329704C07C916D937083629145
:1019B000AE17BF07C8F308952F923F924F925F92E0
:1019C0006F927F928F929F92AF92BF92CF92DF924F
:1019D000EF92FF920F931F93CF93DF93CDB7DEB7B4
:1019E000CA1BDB0B0FB6F894DEBF0FBECDBF099448
:1019F0002A88398848885F846E847D848C849B849F
:101A0000AA84B984C884DF80EE80FD800C811B81AC
:101A1000AA81B981CE0FD11D0FB6F894DEBF0FBEDB
:101A2000CDBFED01089510E0CCE6D0E004C0FE018A
:101A30000E94880A2296CE36D107C9F7F894FFCFC4
:101A400000000503800088130000564D4450565F87
:101A5000317C315F564D4450560D0A005365727605
:101A60006F20302054726967676572205374617407
:101A700075733A2000536572766F20312054726975
:101A800067676572205374617475733A2000564D10
:101A90004450435F005F564D4450430D0A00457269
:101AA000726F723A20417474656D707420746F2087
:101AB000736574206120726561642D6F6E6C79208E
:101AC0007661726961626C65206F72206461746115
:101AD0002074797065206E6F7420737570706F72EA
:101AE0007465640D0A00B5014702ED0219041F0573
:101AF000D40689083D0ACD0C11117B149A192222B3
:101B0000AB2A33330040666600000000DF065B0846
:101B100061067A066C06BD066E616E00696E66002F
:061B20006F7666002E0046
:00000001FF
